{
  "_format": "hh-sol-artifact-1",
  "contractName": "ZineNFT",
  "sourceName": "contracts/ZineNFT.sol",
  "abi": [
    {
      "inputs": [
        {
          "internalType": "string",
          "name": "name",
          "type": "string"
        },
        {
          "internalType": "string",
          "name": "symbol",
          "type": "string"
        }
      ],
      "stateMutability": "nonpayable",
      "type": "constructor"
    },
    {
      "inputs": [
        {
          "internalType": "address",
          "name": "sender",
          "type": "address"
        },
        {
          "internalType": "uint256",
          "name": "tokenId",
          "type": "uint256"
        },
        {
          "internalType": "address",
          "name": "owner",
          "type": "address"
        }
      ],
      "name": "ERC721IncorrectOwner",
      "type": "error"
    },
    {
      "inputs": [
        {
          "internalType": "address",
          "name": "operator",
          "type": "address"
        },
        {
          "internalType": "uint256",
          "name": "tokenId",
          "type": "uint256"
        }
      ],
      "name": "ERC721InsufficientApproval",
      "type": "error"
    },
    {
      "inputs": [
        {
          "internalType": "address",
          "name": "approver",
          "type": "address"
        }
      ],
      "name": "ERC721InvalidApprover",
      "type": "error"
    },
    {
      "inputs": [
        {
          "internalType": "address",
          "name": "operator",
          "type": "address"
        }
      ],
      "name": "ERC721InvalidOperator",
      "type": "error"
    },
    {
      "inputs": [
        {
          "internalType": "address",
          "name": "owner",
          "type": "address"
        }
      ],
      "name": "ERC721InvalidOwner",
      "type": "error"
    },
    {
      "inputs": [
        {
          "internalType": "address",
          "name": "receiver",
          "type": "address"
        }
      ],
      "name": "ERC721InvalidReceiver",
      "type": "error"
    },
    {
      "inputs": [
        {
          "internalType": "address",
          "name": "sender",
          "type": "address"
        }
      ],
      "name": "ERC721InvalidSender",
      "type": "error"
    },
    {
      "inputs": [
        {
          "internalType": "uint256",
          "name": "tokenId",
          "type": "uint256"
        }
      ],
      "name": "ERC721NonexistentToken",
      "type": "error"
    },
    {
      "inputs": [
        {
          "internalType": "address",
          "name": "owner",
          "type": "address"
        }
      ],
      "name": "OwnableInvalidOwner",
      "type": "error"
    },
    {
      "inputs": [
        {
          "internalType": "address",
          "name": "account",
          "type": "address"
        }
      ],
      "name": "OwnableUnauthorizedAccount",
      "type": "error"
    },
    {
      "anonymous": false,
      "inputs": [
        {
          "indexed": true,
          "internalType": "address",
          "name": "owner",
          "type": "address"
        },
        {
          "indexed": true,
          "internalType": "address",
          "name": "approved",
          "type": "address"
        },
        {
          "indexed": true,
          "internalType": "uint256",
          "name": "tokenId",
          "type": "uint256"
        }
      ],
      "name": "Approval",
      "type": "event"
    },
    {
      "anonymous": false,
      "inputs": [
        {
          "indexed": true,
          "internalType": "address",
          "name": "owner",
          "type": "address"
        },
        {
          "indexed": true,
          "internalType": "address",
          "name": "operator",
          "type": "address"
        },
        {
          "indexed": false,
          "internalType": "bool",
          "name": "approved",
          "type": "bool"
        }
      ],
      "name": "ApprovalForAll",
      "type": "event"
    },
    {
      "anonymous": false,
      "inputs": [
        {
          "indexed": true,
          "internalType": "address",
          "name": "previousOwner",
          "type": "address"
        },
        {
          "indexed": true,
          "internalType": "address",
          "name": "newOwner",
          "type": "address"
        }
      ],
      "name": "OwnershipTransferred",
      "type": "event"
    },
    {
      "anonymous": false,
      "inputs": [
        {
          "indexed": true,
          "internalType": "address",
          "name": "from",
          "type": "address"
        },
        {
          "indexed": true,
          "internalType": "address",
          "name": "to",
          "type": "address"
        },
        {
          "indexed": true,
          "internalType": "uint256",
          "name": "tokenId",
          "type": "uint256"
        }
      ],
      "name": "Transfer",
      "type": "event"
    },
    {
      "inputs": [
        {
          "internalType": "address",
          "name": "to",
          "type": "address"
        },
        {
          "internalType": "uint256",
          "name": "tokenId",
          "type": "uint256"
        }
      ],
      "name": "approve",
      "outputs": [],
      "stateMutability": "nonpayable",
      "type": "function"
    },
    {
      "inputs": [
        {
          "internalType": "address",
          "name": "owner",
          "type": "address"
        }
      ],
      "name": "balanceOf",
      "outputs": [
        {
          "internalType": "uint256",
          "name": "",
          "type": "uint256"
        }
      ],
      "stateMutability": "view",
      "type": "function"
    },
    {
      "inputs": [
        {
          "internalType": "uint256",
          "name": "tokenId",
          "type": "uint256"
        }
      ],
      "name": "getApproved",
      "outputs": [
        {
          "internalType": "address",
          "name": "",
          "type": "address"
        }
      ],
      "stateMutability": "view",
      "type": "function"
    },
    {
      "inputs": [
        {
          "internalType": "address",
          "name": "owner",
          "type": "address"
        },
        {
          "internalType": "address",
          "name": "operator",
          "type": "address"
        }
      ],
      "name": "isApprovedForAll",
      "outputs": [
        {
          "internalType": "bool",
          "name": "",
          "type": "bool"
        }
      ],
      "stateMutability": "view",
      "type": "function"
    },
    {
      "inputs": [
        {
          "internalType": "address",
          "name": "to",
          "type": "address"
        }
      ],
      "name": "mint",
      "outputs": [
        {
          "internalType": "uint256",
          "name": "",
          "type": "uint256"
        }
      ],
      "stateMutability": "nonpayable",
      "type": "function"
    },
    {
      "inputs": [],
      "name": "minter",
      "outputs": [
        {
          "internalType": "address",
          "name": "",
          "type": "address"
        }
      ],
      "stateMutability": "view",
      "type": "function"
    },
    {
      "inputs": [],
      "name": "name",
      "outputs": [
        {
          "internalType": "string",
          "name": "",
          "type": "string"
        }
      ],
      "stateMutability": "view",
      "type": "function"
    },
    {
      "inputs": [],
      "name": "owner",
      "outputs": [
        {
          "internalType": "address",
          "name": "",
          "type": "address"
        }
      ],
      "stateMutability": "view",
      "type": "function"
    },
    {
      "inputs": [
        {
          "internalType": "uint256",
          "name": "tokenId",
          "type": "uint256"
        }
      ],
      "name": "ownerOf",
      "outputs": [
        {
          "internalType": "address",
          "name": "",
          "type": "address"
        }
      ],
      "stateMutability": "view",
      "type": "function"
    },
    {
      "inputs": [],
      "name": "renounceOwnership",
      "outputs": [],
      "stateMutability": "nonpayable",
      "type": "function"
    },
    {
      "inputs": [
        {
          "internalType": "address",
          "name": "from",
          "type": "address"
        },
        {
          "internalType": "address",
          "name": "to",
          "type": "address"
        },
        {
          "internalType": "uint256",
          "name": "tokenId",
          "type": "uint256"
        }
      ],
      "name": "safeTransferFrom",
      "outputs": [],
      "stateMutability": "nonpayable",
      "type": "function"
    },
    {
      "inputs": [
        {
          "internalType": "address",
          "name": "from",
          "type": "address"
        },
        {
          "internalType": "address",
          "name": "to",
          "type": "address"
        },
        {
          "internalType": "uint256",
          "name": "tokenId",
          "type": "uint256"
        },
        {
          "internalType": "bytes",
          "name": "data",
          "type": "bytes"
        }
      ],
      "name": "safeTransferFrom",
      "outputs": [],
      "stateMutability": "nonpayable",
      "type": "function"
    },
    {
      "inputs": [
        {
          "internalType": "address",
          "name": "operator",
          "type": "address"
        },
        {
          "internalType": "bool",
          "name": "approved",
          "type": "bool"
        }
      ],
      "name": "setApprovalForAll",
      "outputs": [],
      "stateMutability": "nonpayable",
      "type": "function"
    },
    {
      "inputs": [
        {
          "internalType": "address",
          "name": "_minter",
          "type": "address"
        }
      ],
      "name": "setMinter",
      "outputs": [],
      "stateMutability": "nonpayable",
      "type": "function"
    },
    {
      "inputs": [
        {
          "internalType": "bytes4",
          "name": "interfaceId",
          "type": "bytes4"
        }
      ],
      "name": "supportsInterface",
      "outputs": [
        {
          "internalType": "bool",
          "name": "",
          "type": "bool"
        }
      ],
      "stateMutability": "view",
      "type": "function"
    },
    {
      "inputs": [],
      "name": "symbol",
      "outputs": [
        {
          "internalType": "string",
          "name": "",
          "type": "string"
        }
      ],
      "stateMutability": "view",
      "type": "function"
    },
    {
      "inputs": [
        {
          "internalType": "uint256",
          "name": "tokenId",
          "type": "uint256"
        }
      ],
      "name": "tokenURI",
      "outputs": [
        {
          "internalType": "string",
          "name": "",
          "type": "string"
        }
      ],
      "stateMutability": "view",
      "type": "function"
    },
    {
      "inputs": [
        {
          "internalType": "address",
          "name": "from",
          "type": "address"
        },
        {
          "internalType": "address",
          "name": "to",
          "type": "address"
        },
        {
          "internalType": "uint256",
          "name": "tokenId",
          "type": "uint256"
        }
      ],
      "name": "transferFrom",
      "outputs": [],
      "stateMutability": "nonpayable",
      "type": "function"
    },
    {
      "inputs": [
        {
          "internalType": "address",
          "name": "newOwner",
          "type": "address"
        }
      ],
      "name": "transferOwnership",
      "outputs": [],
      "stateMutability": "nonpayable",
      "type": "function"
    }
  ],
  "bytecode": "0x60806040523480156200001157600080fd5b5060405162002a7638038062002a76833981810160405281019062000037919062000348565b33828281600090816200004b919062000618565b5080600190816200005d919062000618565b505050600073ffffffffffffffffffffffffffffffffffffffff168173ffffffffffffffffffffffffffffffffffffffff1603620000d55760006040517f1e4fbdf7000000000000000000000000000000000000000000000000000000008152600401620000cc919062000744565b60405180910390fd5b620000e681620000ef60201b60201c565b50505062000761565b6000600660009054906101000a900473ffffffffffffffffffffffffffffffffffffffff16905081600660006101000a81548173ffffffffffffffffffffffffffffffffffffffff021916908373ffffffffffffffffffffffffffffffffffffffff1602179055508173ffffffffffffffffffffffffffffffffffffffff168173ffffffffffffffffffffffffffffffffffffffff167f8be0079c531659141344cd1fd0a4f28419497f9722a3daafe3b4186f6b6457e060405160405180910390a35050565b6000604051905090565b600080fd5b600080fd5b600080fd5b600080fd5b6000601f19601f8301169050919050565b7f4e487b7100000000000000000000000000000000000000000000000000000000600052604160045260246000fd5b6200021e82620001d3565b810181811067ffffffffffffffff8211171562000240576200023f620001e4565b5b80604052505050565b600062000255620001b5565b905062000263828262000213565b919050565b600067ffffffffffffffff821115620002865762000285620001e4565b5b6200029182620001d3565b9050602081019050919050565b60005b83811015620002be578082015181840152602081019050620002a1565b60008484015250505050565b6000620002e1620002db8462000268565b62000249565b9050828152602081018484840111156200030057620002ff620001ce565b5b6200030d8482856200029e565b509392505050565b600082601f8301126200032d576200032c620001c9565b5b81516200033f848260208601620002ca565b91505092915050565b60008060408385031215620003625762000361620001bf565b5b600083015167ffffffffffffffff811115620003835762000382620001c4565b5b620003918582860162000315565b925050602083015167ffffffffffffffff811115620003b557620003b4620001c4565b5b620003c38582860162000315565b9150509250929050565b600081519050919050565b7f4e487b7100000000000000000000000000000000000000000000000000000000600052602260045260246000fd5b600060028204905060018216806200042057607f821691505b602082108103620004365762000435620003d8565b5b50919050565b60008190508160005260206000209050919050565b60006020601f8301049050919050565b600082821b905092915050565b600060088302620004a07fffffffffffffffffffffffffffffffffffffffffffffffffffffffffffffffff8262000461565b620004ac868362000461565b95508019841693508086168417925050509392505050565b6000819050919050565b6000819050919050565b6000620004f9620004f3620004ed84620004c4565b620004ce565b620004c4565b9050919050565b6000819050919050565b6200051583620004d8565b6200052d620005248262000500565b8484546200046e565b825550505050565b600090565b6200054462000535565b620005518184846200050a565b505050565b5b8181101562000579576200056d6000826200053a565b60018101905062000557565b5050565b601f821115620005c85762000592816200043c565b6200059d8462000451565b81016020851015620005ad578190505b620005c5620005bc8562000451565b83018262000556565b50505b505050565b600082821c905092915050565b6000620005ed60001984600802620005cd565b1980831691505092915050565b6000620006088383620005da565b9150826002028217905092915050565b6200062382620003cd565b67ffffffffffffffff8111156200063f576200063e620001e4565b5b6200064b825462000407565b620006588282856200057d565b600060209050601f8311600181146200069057600084156200067b578287015190505b620006878582620005fa565b865550620006f7565b601f198416620006a0866200043c565b60005b82811015620006ca57848901518255600182019150602085019450602081019050620006a3565b86831015620006ea5784890151620006e6601f891682620005da565b8355505b6001600288020188555050505b505050505050565b600073ffffffffffffffffffffffffffffffffffffffff82169050919050565b60006200072c82620006ff565b9050919050565b6200073e816200071f565b82525050565b60006020820190506200075b600083018462000733565b92915050565b61230580620007716000396000f3fe608060405234801561001057600080fd5b50600436106101215760003560e01c806370a08231116100ad578063b88d4fde11610071578063b88d4fde14610308578063c87b56dd14610324578063e985e9c514610354578063f2fde38b14610384578063fca3b5aa146103a057610121565b806370a0823114610276578063715018a6146102a65780638da5cb5b146102b057806395d89b41146102ce578063a22cb465146102ec57610121565b8063095ea7b3116100f4578063095ea7b3146101c257806323b872dd146101de57806342842e0e146101fa5780636352211e146102165780636a6278421461024657610121565b806301ffc9a71461012657806306fdde03146101565780630754617214610174578063081812fc14610192575b600080fd5b610140600480360381019061013b9190611a46565b6103bc565b60405161014d9190611a8e565b60405180910390f35b61015e61049e565b60405161016b9190611b39565b60405180910390f35b61017c610530565b6040516101899190611b9c565b60405180910390f35b6101ac60048036038101906101a79190611bed565b610556565b6040516101b99190611b9c565b60405180910390f35b6101dc60048036038101906101d79190611c46565b610572565b005b6101f860048036038101906101f39190611c86565b610588565b005b610214600480360381019061020f9190611c86565b61068a565b005b610230600480360381019061022b9190611bed565b6106aa565b60405161023d9190611b9c565b60405180910390f35b610260600480360381019061025b9190611cd9565b6106bc565b60405161026d9190611d15565b60405180910390f35b610290600480360381019061028b9190611cd9565b61077c565b60405161029d9190611d15565b60405180910390f35b6102ae610836565b005b6102b861084a565b6040516102c59190611b9c565b60405180910390f35b6102d6610874565b6040516102e39190611b39565b60405180910390f35b61030660048036038101906103019190611d5c565b610906565b005b610322600480360381019061031d9190611ed1565b61091c565b005b61033e60048036038101906103399190611bed565b610941565b60405161034b9190611b39565b60405180910390f35b61036e60048036038101906103699190611f54565b6109aa565b60405161037b9190611a8e565b60405180910390f35b61039e60048036038101906103999190611cd9565b610a3e565b005b6103ba60048036038101906103b59190611cd9565b610ac4565b005b60007f80ac58cd000000000000000000000000000000000000000000000000000000007bffffffffffffffffffffffffffffffffffffffffffffffffffffffff1916827bffffffffffffffffffffffffffffffffffffffffffffffffffffffff1916148061048757507f5b5e139f000000000000000000000000000000000000000000000000000000007bffffffffffffffffffffffffffffffffffffffffffffffffffffffff1916827bffffffffffffffffffffffffffffffffffffffffffffffffffffffff1916145b80610497575061049682610b10565b5b9050919050565b6060600080546104ad90611fc3565b80601f01602080910402602001604051908101604052809291908181526020018280546104d990611fc3565b80156105265780601f106104fb57610100808354040283529160200191610526565b820191906000526020600020905b81548152906001019060200180831161050957829003601f168201915b5050505050905090565b600760009054906101000a900473ffffffffffffffffffffffffffffffffffffffff1681565b600061056182610b7a565b5061056b82610c02565b9050919050565b610584828261057f610c3f565b610c47565b5050565b600073ffffffffffffffffffffffffffffffffffffffff168273ffffffffffffffffffffffffffffffffffffffff16036105fa5760006040517f64a0ae920000000000000000000000000000000000000000000000000000000081526004016105f19190611b9c565b60405180910390fd5b600061060e8383610609610c3f565b610c59565b90508373ffffffffffffffffffffffffffffffffffffffff168173ffffffffffffffffffffffffffffffffffffffff1614610684578382826040517f64283d7b00000000000000000000000000000000000000000000000000000000815260040161067b93929190611ff4565b60405180910390fd5b50505050565b6106a58383836040518060200160405280600081525061091c565b505050565b60006106b582610b7a565b9050919050565b6000600760009054906101000a900473ffffffffffffffffffffffffffffffffffffffff1673ffffffffffffffffffffffffffffffffffffffff163373ffffffffffffffffffffffffffffffffffffffff161461074e576040517f08c379a00000000000000000000000000000000000000000000000000000000081526004016107459061209d565b60405180910390fd5b600060086000815480929190610763906120ec565b9190505590506107738382610e73565b80915050919050565b60008073ffffffffffffffffffffffffffffffffffffffff168273ffffffffffffffffffffffffffffffffffffffff16036107ef5760006040517f89c62b640000000000000000000000000000000000000000000000000000000081526004016107e69190611b9c565b60405180910390fd5b600360008373ffffffffffffffffffffffffffffffffffffffff1673ffffffffffffffffffffffffffffffffffffffff168152602001908152602001600020549050919050565b61083e610e91565b6108486000610f18565b565b6000600660009054906101000a900473ffffffffffffffffffffffffffffffffffffffff16905090565b60606001805461088390611fc3565b80601f01602080910402602001604051908101604052809291908181526020018280546108af90611fc3565b80156108fc5780601f106108d1576101008083540402835291602001916108fc565b820191906000526020600020905b8154815290600101906020018083116108df57829003601f168201915b5050505050905090565b610918610911610c3f565b8383610fde565b5050565b610927848484610588565b61093b610932610c3f565b8585858561114d565b50505050565b606061094c82610b7a565b5060006109576112fe565b9050600081511161097757604051806020016040528060008152506109a2565b8061098184611315565b604051602001610992929190612170565b6040516020818303038152906040525b915050919050565b6000600560008473ffffffffffffffffffffffffffffffffffffffff1673ffffffffffffffffffffffffffffffffffffffff16815260200190815260200160002060008373ffffffffffffffffffffffffffffffffffffffff1673ffffffffffffffffffffffffffffffffffffffff16815260200190815260200160002060009054906101000a900460ff16905092915050565b610a46610e91565b600073ffffffffffffffffffffffffffffffffffffffff168173ffffffffffffffffffffffffffffffffffffffff1603610ab85760006040517f1e4fbdf7000000000000000000000000000000000000000000000000000000008152600401610aaf9190611b9c565b60405180910390fd5b610ac181610f18565b50565b610acc610e91565b80600760006101000a81548173ffffffffffffffffffffffffffffffffffffffff021916908373ffffffffffffffffffffffffffffffffffffffff16021790555050565b60007f01ffc9a7000000000000000000000000000000000000000000000000000000007bffffffffffffffffffffffffffffffffffffffffffffffffffffffff1916827bffffffffffffffffffffffffffffffffffffffffffffffffffffffff1916149050919050565b600080610b86836113e3565b9050600073ffffffffffffffffffffffffffffffffffffffff168173ffffffffffffffffffffffffffffffffffffffff1603610bf957826040517f7e273289000000000000000000000000000000000000000000000000000000008152600401610bf09190611d15565b60405180910390fd5b80915050919050565b60006004600083815260200190815260200160002060009054906101000a900473ffffffffffffffffffffffffffffffffffffffff169050919050565b600033905090565b610c548383836001611420565b505050565b600080610c65846113e3565b9050600073ffffffffffffffffffffffffffffffffffffffff168373ffffffffffffffffffffffffffffffffffffffff1614610ca757610ca68184866115e5565b5b600073ffffffffffffffffffffffffffffffffffffffff168173ffffffffffffffffffffffffffffffffffffffff1614610d3857610ce9600085600080611420565b6001600360008373ffffffffffffffffffffffffffffffffffffffff1673ffffffffffffffffffffffffffffffffffffffff168152602001908152602001600020600082825403925050819055505b600073ffffffffffffffffffffffffffffffffffffffff168573ffffffffffffffffffffffffffffffffffffffff1614610dbb576001600360008773ffffffffffffffffffffffffffffffffffffffff1673ffffffffffffffffffffffffffffffffffffffff168152602001908152602001600020600082825401925050819055505b846002600086815260200190815260200160002060006101000a81548173ffffffffffffffffffffffffffffffffffffffff021916908373ffffffffffffffffffffffffffffffffffffffff160217905550838573ffffffffffffffffffffffffffffffffffffffff168273ffffffffffffffffffffffffffffffffffffffff167fddf252ad1be2c89b69c2b068fc378daa952ba7f163c4a11628f55a4df523b3ef60405160405180910390a4809150509392505050565b610e8d8282604051806020016040528060008152506116a9565b5050565b610e99610c3f565b73ffffffffffffffffffffffffffffffffffffffff16610eb761084a565b73ffffffffffffffffffffffffffffffffffffffff1614610f1657610eda610c3f565b6040517f118cdaa7000000000000000000000000000000000000000000000000000000008152600401610f0d9190611b9c565b60405180910390fd5b565b6000600660009054906101000a900473ffffffffffffffffffffffffffffffffffffffff16905081600660006101000a81548173ffffffffffffffffffffffffffffffffffffffff021916908373ffffffffffffffffffffffffffffffffffffffff1602179055508173ffffffffffffffffffffffffffffffffffffffff168173ffffffffffffffffffffffffffffffffffffffff167f8be0079c531659141344cd1fd0a4f28419497f9722a3daafe3b4186f6b6457e060405160405180910390a35050565b600073ffffffffffffffffffffffffffffffffffffffff168273ffffffffffffffffffffffffffffffffffffffff160361104f57816040517f5b08ba180000000000000000000000000000000000000000000000000000000081526004016110469190611b9c565b60405180910390fd5b80600560008573ffffffffffffffffffffffffffffffffffffffff1673ffffffffffffffffffffffffffffffffffffffff16815260200190815260200160002060008473ffffffffffffffffffffffffffffffffffffffff1673ffffffffffffffffffffffffffffffffffffffff16815260200190815260200160002060006101000a81548160ff0219169083151502179055508173ffffffffffffffffffffffffffffffffffffffff168373ffffffffffffffffffffffffffffffffffffffff167f17307eab39ab6107e8899845ad3d59bd9653f200f220920489ca2b5937696c31836040516111409190611a8e565b60405180910390a3505050565b60008373ffffffffffffffffffffffffffffffffffffffff163b11156112f7578273ffffffffffffffffffffffffffffffffffffffff1663150b7a02868685856040518563ffffffff1660e01b81526004016111ac94939291906121e9565b6020604051808303816000875af19250505080156111e857506040513d601f19601f820116820180604052508101906111e5919061224a565b60015b61126c573d8060008114611218576040519150601f19603f3d011682016040523d82523d6000602084013e61121d565b606091505b50600081510361126457836040517f64a0ae9200000000000000000000000000000000000000000000000000000000815260040161125b9190611b9c565b60405180910390fd5b805160208201fd5b63150b7a0260e01b7bffffffffffffffffffffffffffffffffffffffffffffffffffffffff1916817bffffffffffffffffffffffffffffffffffffffffffffffffffffffff1916146112f557836040517f64a0ae920000000000000000000000000000000000000000000000000000000081526004016112ec9190611b9c565b60405180910390fd5b505b5050505050565b606060405180602001604052806000815250905090565b606060006001611324846116cd565b01905060008167ffffffffffffffff81111561134357611342611da6565b5b6040519080825280601f01601f1916602001820160405280156113755781602001600182028036833780820191505090505b509050600082602083010190505b6001156113d8578080600190039150507f3031323334353637383961626364656600000000000000000000000000000000600a86061a8153600a85816113cc576113cb612277565b5b04945060008503611383575b819350505050919050565b60006002600083815260200190815260200160002060009054906101000a900473ffffffffffffffffffffffffffffffffffffffff169050919050565b80806114595750600073ffffffffffffffffffffffffffffffffffffffff168273ffffffffffffffffffffffffffffffffffffffff1614155b1561158d57600061146984610b7a565b9050600073ffffffffffffffffffffffffffffffffffffffff168373ffffffffffffffffffffffffffffffffffffffff16141580156114d457508273ffffffffffffffffffffffffffffffffffffffff168173ffffffffffffffffffffffffffffffffffffffff1614155b80156114e757506114e581846109aa565b155b1561152957826040517fa9fbf51f0000000000000000000000000000000000000000000000000000000081526004016115209190611b9c565b60405180910390fd5b811561158b57838573ffffffffffffffffffffffffffffffffffffffff168273ffffffffffffffffffffffffffffffffffffffff167f8c5be1e5ebec7d5bd14f71427d1e84f3dd0314c0f7b2291e5b200ac8c7c3b92560405160405180910390a45b505b836004600085815260200190815260200160002060006101000a81548173ffffffffffffffffffffffffffffffffffffffff021916908373ffffffffffffffffffffffffffffffffffffffff16021790555050505050565b6115f0838383611820565b6116a457600073ffffffffffffffffffffffffffffffffffffffff168373ffffffffffffffffffffffffffffffffffffffff160361166557806040517f7e27328900000000000000000000000000000000000000000000000000000000815260040161165c9190611d15565b60405180910390fd5b81816040517f177e802f00000000000000000000000000000000000000000000000000000000815260040161169b9291906122a6565b60405180910390fd5b505050565b6116b383836118e1565b6116c86116be610c3f565b600085858561114d565b505050565b600080600090507a184f03e93ff9f4daa797ed6e38ed64bf6a1f010000000000000000831061172b577a184f03e93ff9f4daa797ed6e38ed64bf6a1f010000000000000000838161172157611720612277565b5b0492506040810190505b6d04ee2d6d415b85acef81000000008310611768576d04ee2d6d415b85acef8100000000838161175e5761175d612277565b5b0492506020810190505b662386f26fc10000831061179757662386f26fc10000838161178d5761178c612277565b5b0492506010810190505b6305f5e10083106117c0576305f5e10083816117b6576117b5612277565b5b0492506008810190505b61271083106117e55761271083816117db576117da612277565b5b0492506004810190505b6064831061180857606483816117fe576117fd612277565b5b0492506002810190505b600a8310611817576001810190505b80915050919050565b60008073ffffffffffffffffffffffffffffffffffffffff168373ffffffffffffffffffffffffffffffffffffffff16141580156118d857508273ffffffffffffffffffffffffffffffffffffffff168473ffffffffffffffffffffffffffffffffffffffff161480611899575061189884846109aa565b5b806118d757508273ffffffffffffffffffffffffffffffffffffffff166118bf83610c02565b73ffffffffffffffffffffffffffffffffffffffff16145b5b90509392505050565b600073ffffffffffffffffffffffffffffffffffffffff168273ffffffffffffffffffffffffffffffffffffffff16036119535760006040517f64a0ae9200000000000000000000000000000000000000000000000000000000815260040161194a9190611b9c565b60405180910390fd5b600061196183836000610c59565b9050600073ffffffffffffffffffffffffffffffffffffffff168173ffffffffffffffffffffffffffffffffffffffff16146119d55760006040517f73c6ac6e0000000000000000000000000000000000000000000000000000000081526004016119cc9190611b9c565b60405180910390fd5b505050565b6000604051905090565b600080fd5b600080fd5b60007fffffffff0000000000000000000000000000000000000000000000000000000082169050919050565b611a23816119ee565b8114611a2e57600080fd5b50565b600081359050611a4081611a1a565b92915050565b600060208284031215611a5c57611a5b6119e4565b5b6000611a6a84828501611a31565b91505092915050565b60008115159050919050565b611a8881611a73565b82525050565b6000602082019050611aa36000830184611a7f565b92915050565b600081519050919050565b600082825260208201905092915050565b60005b83811015611ae3578082015181840152602081019050611ac8565b60008484015250505050565b6000601f19601f8301169050919050565b6000611b0b82611aa9565b611b158185611ab4565b9350611b25818560208601611ac5565b611b2e81611aef565b840191505092915050565b60006020820190508181036000830152611b538184611b00565b905092915050565b600073ffffffffffffffffffffffffffffffffffffffff82169050919050565b6000611b8682611b5b565b9050919050565b611b9681611b7b565b82525050565b6000602082019050611bb16000830184611b8d565b92915050565b6000819050919050565b611bca81611bb7565b8114611bd557600080fd5b50565b600081359050611be781611bc1565b92915050565b600060208284031215611c0357611c026119e4565b5b6000611c1184828501611bd8565b91505092915050565b611c2381611b7b565b8114611c2e57600080fd5b50565b600081359050611c4081611c1a565b92915050565b60008060408385031215611c5d57611c5c6119e4565b5b6000611c6b85828601611c31565b9250506020611c7c85828601611bd8565b9150509250929050565b600080600060608486031215611c9f57611c9e6119e4565b5b6000611cad86828701611c31565b9350506020611cbe86828701611c31565b9250506040611ccf86828701611bd8565b9150509250925092565b600060208284031215611cef57611cee6119e4565b5b6000611cfd84828501611c31565b91505092915050565b611d0f81611bb7565b82525050565b6000602082019050611d2a6000830184611d06565b92915050565b611d3981611a73565b8114611d4457600080fd5b50565b600081359050611d5681611d30565b92915050565b60008060408385031215611d7357611d726119e4565b5b6000611d8185828601611c31565b9250506020611d9285828601611d47565b9150509250929050565b600080fd5b600080fd5b7f4e487b7100000000000000000000000000000000000000000000000000000000600052604160045260246000fd5b611dde82611aef565b810181811067ffffffffffffffff82111715611dfd57611dfc611da6565b5b80604052505050565b6000611e106119da565b9050611e1c8282611dd5565b919050565b600067ffffffffffffffff821115611e3c57611e3b611da6565b5b611e4582611aef565b9050602081019050919050565b82818337600083830152505050565b6000611e74611e6f84611e21565b611e06565b905082815260208101848484011115611e9057611e8f611da1565b5b611e9b848285611e52565b509392505050565b600082601f830112611eb857611eb7611d9c565b5b8135611ec8848260208601611e61565b91505092915050565b60008060008060808587031215611eeb57611eea6119e4565b5b6000611ef987828801611c31565b9450506020611f0a87828801611c31565b9350506040611f1b87828801611bd8565b925050606085013567ffffffffffffffff811115611f3c57611f3b6119e9565b5b611f4887828801611ea3565b91505092959194509250565b60008060408385031215611f6b57611f6a6119e4565b5b6000611f7985828601611c31565b9250506020611f8a85828601611c31565b9150509250929050565b7f4e487b7100000000000000000000000000000000000000000000000000000000600052602260045260246000fd5b60006002820490506001821680611fdb57607f821691505b602082108103611fee57611fed611f94565b5b50919050565b60006060820190506120096000830186611b8d565b6120166020830185611d06565b6120236040830184611b8d565b949350505050565b7f5a696e654e46543a2063616c6c6572206973206e6f7420746865206d696e746560008201527f7200000000000000000000000000000000000000000000000000000000000000602082015250565b6000612087602183611ab4565b91506120928261202b565b604082019050919050565b600060208201905081810360008301526120b68161207a565b9050919050565b7f4e487b7100000000000000000000000000000000000000000000000000000000600052601160045260246000fd5b60006120f782611bb7565b91507fffffffffffffffffffffffffffffffffffffffffffffffffffffffffffffffff8203612129576121286120bd565b5b600182019050919050565b600081905092915050565b600061214a82611aa9565b6121548185612134565b9350612164818560208601611ac5565b80840191505092915050565b600061217c828561213f565b9150612188828461213f565b91508190509392505050565b600081519050919050565b600082825260208201905092915050565b60006121bb82612194565b6121c5818561219f565b93506121d5818560208601611ac5565b6121de81611aef565b840191505092915050565b60006080820190506121fe6000830187611b8d565b61220b6020830186611b8d565b6122186040830185611d06565b818103606083015261222a81846121b0565b905095945050505050565b60008151905061224481611a1a565b92915050565b6000602082840312156122605761225f6119e4565b5b600061226e84828501612235565b91505092915050565b7f4e487b7100000000000000000000000000000000000000000000000000000000600052601260045260246000fd5b60006040820190506122bb6000830185611b8d565b6122c86020830184611d06565b939250505056fea264697066735822122023eb4e79a2e4b4d2f1186f65e7d451f7a874a47b6cb23ad75b51842fce6eb55964736f6c63430008180033",
  "linkReferences": {},
  "deployedLinkReferences": {}
}